{
  "_format": "hh-sol-artifact-1",
  "contractName": "MultiSend",
  "sourceName": "contracts/MultiSend.sol",
  "abi": [
    {
      "inputs": [],
      "stateMutability": "nonpayable",
      "type": "constructor"
    },
    {
      "anonymous": false,
      "inputs": [
        {
          "indexed": true,
          "internalType": "bytes32",
          "name": "role",
          "type": "bytes32"
        },
        {
          "indexed": true,
          "internalType": "bytes32",
          "name": "previousAdminRole",
          "type": "bytes32"
        },
        {
          "indexed": true,
          "internalType": "bytes32",
          "name": "newAdminRole",
          "type": "bytes32"
        }
      ],
      "name": "RoleAdminChanged",
      "type": "event"
    },
    {
      "anonymous": false,
      "inputs": [
        {
          "indexed": true,
          "internalType": "bytes32",
          "name": "role",
          "type": "bytes32"
        },
        {
          "indexed": true,
          "internalType": "address",
          "name": "account",
          "type": "address"
        },
        {
          "indexed": true,
          "internalType": "address",
          "name": "sender",
          "type": "address"
        }
      ],
      "name": "RoleGranted",
      "type": "event"
    },
    {
      "anonymous": false,
      "inputs": [
        {
          "indexed": true,
          "internalType": "bytes32",
          "name": "role",
          "type": "bytes32"
        },
        {
          "indexed": true,
          "internalType": "address",
          "name": "account",
          "type": "address"
        },
        {
          "indexed": true,
          "internalType": "address",
          "name": "sender",
          "type": "address"
        }
      ],
      "name": "RoleRevoked",
      "type": "event"
    },
    {
      "inputs": [],
      "name": "DEFAULT_ADMIN_ROLE",
      "outputs": [
        {
          "internalType": "bytes32",
          "name": "",
          "type": "bytes32"
        }
      ],
      "stateMutability": "view",
      "type": "function"
    },
    {
      "inputs": [
        {
          "internalType": "address payable",
          "name": "recipient",
          "type": "address"
        }
      ],
      "name": "claimDump",
      "outputs": [],
      "stateMutability": "nonpayable",
      "type": "function"
    },
    {
      "inputs": [
        {
          "internalType": "bytes32",
          "name": "role",
          "type": "bytes32"
        }
      ],
      "name": "getRoleAdmin",
      "outputs": [
        {
          "internalType": "bytes32",
          "name": "",
          "type": "bytes32"
        }
      ],
      "stateMutability": "view",
      "type": "function"
    },
    {
      "inputs": [
        {
          "internalType": "bytes32",
          "name": "role",
          "type": "bytes32"
        },
        {
          "internalType": "address",
          "name": "account",
          "type": "address"
        }
      ],
      "name": "grantRole",
      "outputs": [],
      "stateMutability": "nonpayable",
      "type": "function"
    },
    {
      "inputs": [
        {
          "internalType": "bytes32",
          "name": "role",
          "type": "bytes32"
        },
        {
          "internalType": "address",
          "name": "account",
          "type": "address"
        }
      ],
      "name": "hasRole",
      "outputs": [
        {
          "internalType": "bool",
          "name": "",
          "type": "bool"
        }
      ],
      "stateMutability": "view",
      "type": "function"
    },
    {
      "inputs": [
        {
          "internalType": "address payable[]",
          "name": "recipients",
          "type": "address[]"
        },
        {
          "internalType": "uint256[]",
          "name": "values",
          "type": "uint256[]"
        }
      ],
      "name": "multiSend",
      "outputs": [],
      "stateMutability": "payable",
      "type": "function"
    },
    {
      "inputs": [
        {
          "internalType": "bytes32",
          "name": "role",
          "type": "bytes32"
        },
        {
          "internalType": "address",
          "name": "account",
          "type": "address"
        }
      ],
      "name": "renounceRole",
      "outputs": [],
      "stateMutability": "nonpayable",
      "type": "function"
    },
    {
      "inputs": [
        {
          "internalType": "bytes32",
          "name": "role",
          "type": "bytes32"
        },
        {
          "internalType": "address",
          "name": "account",
          "type": "address"
        }
      ],
      "name": "revokeRole",
      "outputs": [],
      "stateMutability": "nonpayable",
      "type": "function"
    },
    {
      "inputs": [
        {
          "internalType": "bytes4",
          "name": "interfaceId",
          "type": "bytes4"
        }
      ],
      "name": "supportsInterface",
      "outputs": [
        {
          "internalType": "bool",
          "name": "",
          "type": "bool"
        }
      ],
      "stateMutability": "view",
      "type": "function"
    }
  ],
  "bytecode": "0x608060405234801561001057600080fd5b506100246000801b3361002960201b60201c565b610187565b610039828261011560201b60201c565b61011157600160008084815260200190815260200160002060000160008373ffffffffffffffffffffffffffffffffffffffff1673ffffffffffffffffffffffffffffffffffffffff16815260200190815260200160002060006101000a81548160ff0219169083151502179055506100b661017f60201b60201c565b73ffffffffffffffffffffffffffffffffffffffff168173ffffffffffffffffffffffffffffffffffffffff16837f2f8788117e7eff1d82e926ec794901d17c78024a50270940304540a733656f0d60405160405180910390a45b5050565b600080600084815260200190815260200160002060000160008373ffffffffffffffffffffffffffffffffffffffff1673ffffffffffffffffffffffffffffffffffffffff16815260200190815260200160002060009054906101000a900460ff16905092915050565b600033905090565b611388806101966000396000f3fe6080604052600436106100865760003560e01c806336568abe1161005957806336568abe1461015757806391d1485414610180578063a217fddf146101bd578063bb4c9f0b146101e8578063d547741f1461020457610086565b806301ffc9a71461008b5780631666d09b146100c8578063248a9ca3146100f15780632f2ff15d1461012e575b600080fd5b34801561009757600080fd5b506100b260048036038101906100ad9190610b05565b61022d565b6040516100bf9190610b4d565b60405180910390f35b3480156100d457600080fd5b506100ef60048036038101906100ea9190610bc6565b6102a7565b005b3480156100fd57600080fd5b5061011860048036038101906101139190610c29565b61033d565b6040516101259190610c65565b60405180910390f35b34801561013a57600080fd5b5061015560048036038101906101509190610cbe565b61035c565b005b34801561016357600080fd5b5061017e60048036038101906101799190610cbe565b61037d565b005b34801561018c57600080fd5b506101a760048036038101906101a29190610cbe565b610400565b6040516101b49190610b4d565b60405180910390f35b3480156101c957600080fd5b506101d261046a565b6040516101df9190610c65565b60405180910390f35b61020260048036038101906101fd9190610db9565b610471565b005b34801561021057600080fd5b5061022b60048036038101906102269190610cbe565b610562565b005b60007f7965db0b000000000000000000000000000000000000000000000000000000007bffffffffffffffffffffffffffffffffffffffffffffffffffffffff1916827bffffffffffffffffffffffffffffffffffffffffffffffffffffffff191614806102a0575061029f82610583565b5b9050919050565b6102b46000801b33610400565b6102f3576040517f08c379a00000000000000000000000000000000000000000000000000000000081526004016102ea90610ebd565b60405180910390fd5b8073ffffffffffffffffffffffffffffffffffffffff166108fc479081150290604051600060405180830381858888f19350505050158015610339573d6000803e3d6000fd5b5050565b6000806000838152602001908152602001600020600101549050919050565b6103658261033d565b61036e816105ed565b6103788383610601565b505050565b6103856106e1565b73ffffffffffffffffffffffffffffffffffffffff168173ffffffffffffffffffffffffffffffffffffffff16146103f2576040517f08c379a00000000000000000000000000000000000000000000000000000000081526004016103e990610f4f565b60405180910390fd5b6103fc82826106e9565b5050565b600080600084815260200190815260200160002060000160008373ffffffffffffffffffffffffffffffffffffffff1673ffffffffffffffffffffffffffffffffffffffff16815260200190815260200160002060009054906101000a900460ff16905092915050565b6000801b81565b8181905084849050146104b9576040517f08c379a00000000000000000000000000000000000000000000000000000000081526004016104b090610fe1565b60405180910390fd5b60005b8484905081101561055b578484828181106104da576104d9611001565b5b90506020020160208101906104ef9190610bc6565b73ffffffffffffffffffffffffffffffffffffffff166108fc84848481811061051b5761051a611001565b5b905060200201359081150290604051600060405180830381858888f1935050505015801561054d573d6000803e3d6000fd5b5080806001019150506104bc565b5050505050565b61056b8261033d565b610574816105ed565b61057e83836106e9565b505050565b60007f01ffc9a7000000000000000000000000000000000000000000000000000000007bffffffffffffffffffffffffffffffffffffffffffffffffffffffff1916827bffffffffffffffffffffffffffffffffffffffffffffffffffffffff1916149050919050565b6105fe816105f96106e1565b6107ca565b50565b61060b8282610400565b6106dd57600160008084815260200190815260200160002060000160008373ffffffffffffffffffffffffffffffffffffffff1673ffffffffffffffffffffffffffffffffffffffff16815260200190815260200160002060006101000a81548160ff0219169083151502179055506106826106e1565b73ffffffffffffffffffffffffffffffffffffffff168173ffffffffffffffffffffffffffffffffffffffff16837f2f8788117e7eff1d82e926ec794901d17c78024a50270940304540a733656f0d60405160405180910390a45b5050565b600033905090565b6106f38282610400565b156107c657600080600084815260200190815260200160002060000160008373ffffffffffffffffffffffffffffffffffffffff1673ffffffffffffffffffffffffffffffffffffffff16815260200190815260200160002060006101000a81548160ff02191690831515021790555061076b6106e1565b73ffffffffffffffffffffffffffffffffffffffff168173ffffffffffffffffffffffffffffffffffffffff16837ff6391f5c32d9c69d2a47ea670b442974b53935d1edc7fd64eb21e047a839171b60405160405180910390a45b5050565b6107d48282610400565b610863576107f98173ffffffffffffffffffffffffffffffffffffffff166014610867565b6108078360001c6020610867565b604051602001610818929190611139565b6040516020818303038152906040526040517f08c379a000000000000000000000000000000000000000000000000000000000815260040161085a91906111bd565b60405180910390fd5b5050565b60606000600283600261087a9190611218565b610884919061125a565b67ffffffffffffffff81111561089d5761089c61128e565b5b6040519080825280601f01601f1916602001820160405280156108cf5781602001600182028036833780820191505090505b5090507f30000000000000000000000000000000000000000000000000000000000000008160008151811061090757610906611001565b5b60200101907effffffffffffffffffffffffffffffffffffffffffffffffffffffffffffff1916908160001a9053507f78000000000000000000000000000000000000000000000000000000000000008160018151811061096b5761096a611001565b5b60200101907effffffffffffffffffffffffffffffffffffffffffffffffffffffffffffff1916908160001a905350600060018460026109ab9190611218565b6109b5919061125a565b90505b6001811115610a55577f3031323334353637383961626364656600000000000000000000000000000000600f8616601081106109f7576109f6611001565b5b1a60f81b828281518110610a0e57610a0d611001565b5b60200101907effffffffffffffffffffffffffffffffffffffffffffffffffffffffffffff1916908160001a905350600485901c945080610a4e906112bd565b90506109b8565b5060008414610a99576040517f08c379a0000000000000000000000000000000000000000000000000000000008152600401610a9090611332565b60405180910390fd5b8091505092915050565b600080fd5b600080fd5b60007fffffffff0000000000000000000000000000000000000000000000000000000082169050919050565b610ae281610aad565b8114610aed57600080fd5b50565b600081359050610aff81610ad9565b92915050565b600060208284031215610b1b57610b1a610aa3565b5b6000610b2984828501610af0565b91505092915050565b60008115159050919050565b610b4781610b32565b82525050565b6000602082019050610b626000830184610b3e565b92915050565b600073ffffffffffffffffffffffffffffffffffffffff82169050919050565b6000610b9382610b68565b9050919050565b610ba381610b88565b8114610bae57600080fd5b50565b600081359050610bc081610b9a565b92915050565b600060208284031215610bdc57610bdb610aa3565b5b6000610bea84828501610bb1565b91505092915050565b6000819050919050565b610c0681610bf3565b8114610c1157600080fd5b50565b600081359050610c2381610bfd565b92915050565b600060208284031215610c3f57610c3e610aa3565b5b6000610c4d84828501610c14565b91505092915050565b610c5f81610bf3565b82525050565b6000602082019050610c7a6000830184610c56565b92915050565b6000610c8b82610b68565b9050919050565b610c9b81610c80565b8114610ca657600080fd5b50565b600081359050610cb881610c92565b92915050565b60008060408385031215610cd557610cd4610aa3565b5b6000610ce385828601610c14565b9250506020610cf485828601610ca9565b9150509250929050565b600080fd5b600080fd5b600080fd5b60008083601f840112610d2357610d22610cfe565b5b8235905067ffffffffffffffff811115610d4057610d3f610d03565b5b602083019150836020820283011115610d5c57610d5b610d08565b5b9250929050565b60008083601f840112610d7957610d78610cfe565b5b8235905067ffffffffffffffff811115610d9657610d95610d03565b5b602083019150836020820283011115610db257610db1610d08565b5b9250929050565b60008060008060408587031215610dd357610dd2610aa3565b5b600085013567ffffffffffffffff811115610df157610df0610aa8565b5b610dfd87828801610d0d565b9450945050602085013567ffffffffffffffff811115610e2057610e1f610aa8565b5b610e2c87828801610d63565b925092505092959194509250565b600082825260208201905092915050565b7f4d756c746953656e643a2063616c6c6572206973206e6f7420616e2061646d6960008201527f6e00000000000000000000000000000000000000000000000000000000000000602082015250565b6000610ea7602183610e3a565b9150610eb282610e4b565b604082019050919050565b60006020820190508181036000830152610ed681610e9a565b9050919050565b7f416363657373436f6e74726f6c3a2063616e206f6e6c792072656e6f756e636560008201527f20726f6c657320666f722073656c660000000000000000000000000000000000602082015250565b6000610f39602f83610e3a565b9150610f4482610edd565b604082019050919050565b60006020820190508181036000830152610f6881610f2c565b9050919050565b7f4d756c746953656e643a20726563697069656e747320616e642076616c75657360008201527f206c656e677468206d69736d6174636800000000000000000000000000000000602082015250565b6000610fcb603083610e3a565b9150610fd682610f6f565b604082019050919050565b60006020820190508181036000830152610ffa81610fbe565b9050919050565b7f4e487b7100000000000000000000000000000000000000000000000000000000600052603260045260246000fd5b600081905092915050565b7f416363657373436f6e74726f6c3a206163636f756e7420000000000000000000600082015250565b6000611071601783611030565b915061107c8261103b565b601782019050919050565b600081519050919050565b60005b838110156110b0578082015181840152602081019050611095565b60008484015250505050565b60006110c782611087565b6110d18185611030565b93506110e1818560208601611092565b80840191505092915050565b7f206973206d697373696e6720726f6c6520000000000000000000000000000000600082015250565b6000611123601183611030565b915061112e826110ed565b601182019050919050565b600061114482611064565b915061115082856110bc565b915061115b82611116565b915061116782846110bc565b91508190509392505050565b6000601f19601f8301169050919050565b600061118f82611087565b6111998185610e3a565b93506111a9818560208601611092565b6111b281611173565b840191505092915050565b600060208201905081810360008301526111d78184611184565b905092915050565b6000819050919050565b7f4e487b7100000000000000000000000000000000000000000000000000000000600052601160045260246000fd5b6000611223826111df565b915061122e836111df565b925082820261123c816111df565b91508282048414831517611253576112526111e9565b5b5092915050565b6000611265826111df565b9150611270836111df565b9250828201905080821115611288576112876111e9565b5b92915050565b7f4e487b7100000000000000000000000000000000000000000000000000000000600052604160045260246000fd5b60006112c8826111df565b9150600082036112db576112da6111e9565b5b600182039050919050565b7f537472696e67733a20686578206c656e67746820696e73756666696369656e74600082015250565b600061131c602083610e3a565b9150611327826112e6565b602082019050919050565b6000602082019050818103600083015261134b8161130f565b905091905056fea2646970667358221220a7286ead61e2c7defb7f76aa2de77451c94208f521485472971a98b1f2d61b9b64736f6c63430008180033",
  "linkReferences": {},
  "deployedLinkReferences": {}
}